{
  "contractName": "Production",
  "abi": [
    {
      "constant": true,
      "inputs": [
        {
          "internalType": "uint256",
          "name": "",
          "type": "uint256"
        }
      ],
      "name": "production",
      "outputs": [
        {
          "internalType": "uint256",
          "name": "watts",
          "type": "uint256"
        },
        {
          "internalType": "uint256",
          "name": "logTime",
          "type": "uint256"
        },
        {
          "internalType": "string",
          "name": "source",
          "type": "string"
        }
      ],
      "payable": false,
      "stateMutability": "view",
      "type": "function"
    },
    {
      "constant": false,
      "inputs": [
        {
          "internalType": "uint256",
          "name": "watt",
          "type": "uint256"
        },
        {
          "internalType": "uint256",
          "name": "timestamp",
          "type": "uint256"
        },
        {
          "internalType": "string",
          "name": "source",
          "type": "string"
        }
      ],
      "name": "log_production",
      "outputs": [],
      "payable": false,
      "stateMutability": "nonpayable",
      "type": "function"
    },
    {
      "constant": true,
      "inputs": [
        {
          "internalType": "uint256",
          "name": "time",
          "type": "uint256"
        }
      ],
      "name": "get_production",
      "outputs": [
        {
          "internalType": "uint256",
          "name": "watts",
          "type": "uint256"
        },
        {
          "internalType": "uint256",
          "name": "date",
          "type": "uint256"
        },
        {
          "internalType": "string",
          "name": "source",
          "type": "string"
        }
      ],
      "payable": false,
      "stateMutability": "view",
      "type": "function"
    }
  ],
  "bytecode": "0x608060405234801561001057600080fd5b5061059d806100206000396000f3fe608060405234801561001057600080fd5b50600436106100415760003560e01c80634859542b14610046578063a26a7d5a14610115578063b89d05c9146101ca575b600080fd5b6101136004803603606081101561005c57600080fd5b8101908080359060200190929190803590602001909291908035906020019064010000000081111561008d57600080fd5b82018360208201111561009f57600080fd5b803590602001918460018302840111640100000000831117156100c157600080fd5b91908080601f016020809104026020016040519081016040528093929190818152602001838380828437600081840152601f19601f82011690508083019250505050505050919291929050505061027f565b005b6101416004803603602081101561012b57600080fd5b81019080803590602001909291905050506102f1565b6040518084815260200183815260200180602001828103825283818151815260200191508051906020019080838360005b8381101561018d578082015181840152602081019050610172565b50505050905090810190601f1680156101ba5780820380516001836020036101000a031916815260200191505b5094505050505060405180910390f35b6101f6600480360360208110156101e057600080fd5b81019080803590602001909291905050506103b3565b6040518084815260200183815260200180602001828103825283818151815260200191508051906020019080838360005b83811015610242578082015181840152602081019050610227565b50505050905090810190601f16801561026f5780820380516001836020036101000a031916815260200191505b5094505050505060405180910390f35b6102876104a2565b838160000181815250508281602001818152505081816040018190525080600080858152602001908152602001600020600082015181600001556020820151816001015560408201518160020190805190602001906102e79291906104c3565b5090505050505050565b6000602052806000526040600020600091509050806000015490806001015490806002018054600181600116156101000203166002900480601f0160208091040260200160405190810160405280929190818152602001828054600181600116156101000203166002900480156103a95780601f1061037e576101008083540402835291602001916103a9565b820191906000526020600020905b81548152906001019060200180831161038c57829003601f168201915b5050505050905083565b60008060606000808581526020019081526020016000206000015460008086815260200190815260200160002060010154600080878152602001908152602001600020600201808054600181600116156101000203166002900480601f01602080910402602001604051908101604052809291908181526020018280546001816001161561010002031660029004801561048e5780601f106104635761010080835404028352916020019161048e565b820191906000526020600020905b81548152906001019060200180831161047157829003601f168201915b505050505090509250925092509193909250565b60405180606001604052806000815260200160008152602001606081525090565b828054600181600116156101000203166002900490600052602060002090601f016020900481019282601f1061050457805160ff1916838001178555610532565b82800160010185558215610532579182015b82811115610531578251825591602001919060010190610516565b5b50905061053f9190610543565b5090565b61056591905b80821115610561576000816000905550600101610549565b5090565b9056fea265627a7a7231582056db4823790082b43e023cb822f416e02f0caee538ab342fdd599f1cb80ff95364736f6c63430005100032",
  "source": "// SPDX-License-Identifier: MIT\npragma solidity >=0.5.9;\n\ncontract Production {\n  \n  struct ProductionData{\n      uint watts;\n      uint logTime;\n      string source;\n  }\n  \n  mapping (uint => ProductionData) public production;\n\n  function log_production(uint watt, uint timestamp, string memory source) public {\n      ProductionData memory data;\n      data.watts = watt;\n      data.logTime = timestamp;\n      data.source = source;\n      production[timestamp] = data;\n  }\n\n  function get_production(uint time) public view returns (uint watts, uint date, string memory source){\n    return (production[time].watts, production[time].logTime, production[time].source);\n  }\n}\n\n\n",
  "sourcePath": "/home/ather/Desktop/demo/contracts/Production.sol",
  "compiler": {
    "name": "solc",
    "version": "0.5.16+commit.9c3226ce.Emscripten.clang"
  },
  "schemaVersion": "3.3.3",
  "updatedAt": "2021-02-04T07:35:52.175Z",
  "networkType": "ethereum",
  "devdoc": {
    "methods": {}
  },
  "userdoc": {
    "methods": {}
  }
}